:020000040800F2
:10000000A0180020C9020008653B00087F2B0008EB
:10001000613B0008E9230008615800080000000067
:10002000000000000000000000000000B14F0008C8
:10003000ED23000800000000794B0008095100087A
:10004000E3020008E3020008E3020008E3020008FC
:10005000E3020008E3020008E3020008E3020008EC
:10006000E3020008E3020008E3020008E3020008DC
:10007000E3020008E3020008E3020008E3020008CC
:10008000E3020008E3020008E3020008E3020008BC
:10009000E3020008E3020008E3020008E3020008AC
:1000A000E3020008E3020008E3020008E30200089C
:1000B000E3020008E30200086D510008E3020008B3
:1000C000E3020008E3020008E3020008E30200087C
:1000D000E3020008055400084D5400089954000834
:1000E000E3020008E3020008E3020008E30200085C
:1000F000E3020008E3020008E3020008E30200084C
:10010000E3020008E3020008E3020008E30200083B
:10011000E3020008E3020008E3020008E30200082B
:10012000E3020008E3020008E3020008E30200081B
:1001300000F002F800F0B8F80AA090E8000C824441
:100140008344AAF10107DA4501D100F0ADF8AFF21E
:10015000090EBAE80F0013F0010F18BFFB1A43F0A5
:1001600001031847389100005891000010F8013B36
:100170000A4413F0030408BF10F8014B1D1108BF17
:1001800010F8015B641E05D010F8016B641E01F8C5
:10019000016BF9D1002D15D010F8014B03F00C03C1
:1001A0000C2BA1EB04040ABF10F8013BA4EB831451
:1001B000A4EB032405F1010314F8016B5B1E01F8A5
:1001C000016BF9D5914238BF10F8013BD1D370478C
:1001D0000023002400250026103A28BF78C1FBD850
:1001E000520728BF30C148BF0B6070476E2900F02E
:1001F0003185702900F00382662908F08E82652916
:1002000008F08B82672908F088826129AFF30080AB
:1002100003681B0A28BF41F08001692900F074813E
:10022000642900F07181752900F06E816F2901F059
:100230002D80782900F0CF81E92900F0C787E429D3
:1002400000F0C487F52900F0C187EF2901F02A806A
:10025000F82900F0CE810368DB0928BF41F0800156
:10026000632900F04887732900F04D87E32901F0E6
:10027000D980F32901F0DE80002070471FB59DE88A
:10028000030000F03BFC01F01BF8040000200021FB
:1002900007F07AF9401C60600020002107F08AF91D
:1002A000E0601FBD10B510BD01F05EF91146FFF70B
:1002B000E5FF05F0E3FE01F07CF903B4FFF7F2FF80
:1002C00003BC01F0EDF900000948804709480047E8
:1002D000FEE7FEE7FEE7FEE7FEE7FEE7FEE7FEE7F6
:1002E000FEE7FEE704480549054A064B7047000053
:1002F0000D51000831010008A0120020A0180020B4
:10030000A0140020A014002070B5064600F0DAFB0F
:10031000056806F10B0020F00704B4429CBF0020E2
:1003200070BD2B466A68BAB11068A04210D304F1C0
:10033000080188423CBF5068586007D351681019C3
:1003400041601168091B016058601460101D70BD88
:1003500013465268002AE7D12146284600F0BAFB2E
:100360000028DED170BD70B50446051F00F0AAFB61
:100370000068002C14BF446870BD002C18BFAC424C
:100380003CBF20466468F8D301680A18AA4218BF27
:10039000456003D12A680546114401602868411967
:1003A000A1421CBF6C6070BD61686960216808442F
:1003B000286070BD10B5044600F07CFB0068005D4D
:1003C000C00602D504F1200010BD204610BD00007B
:1003D0007CB51D4616460C00009001D02044401EFE
:1003E000074B7B442A4669460190304600F059FE8F
:1003F00005461CB10020694600F066FE28467CBD1B
:10040000ED0C00000FB41CB5084B06AA7B446946EE
:100410000090059800F045FE04460020694600F073
:1004200053FE20461CBC5DF814FB0000B90C000014
:100430000FB47CB50C0009AA009001D02044401EE6
:10044000084B7B4469460190089800F02AFE054657
:100450001CB10020694600F037FE28467CBC5DF8E0
:1004600014FB00008D0C000070B50446856900681F
:10047000C10601D5302600E02026C00707D070BD98
:10048000D4E9012130469047206A401C20626D1E4D
:10049000F6D570BD70B5044685690078C00707D1F0
:1004A00070BDD4E9012120209047206A401C2062C1
:1004B0006D1EF6D570BD70B50C460546012A05D0F7
:1004C0002878800600D5EA69002302E0012305E0D0
:1004D0005B1C934202D2E05C0028F9D1A869E618BF
:1004E000C01AA861286A184428622846FFF7BCFF92
:1004F00004E0D5E9012114F8010B9047B442F8D388
:100500002846FFF7C7FF70BD2DE9F04106460024DD
:1005100010687529314616A510D000F030FB002870
:1005200002DA404213A507E031688A0701D512A517
:1005300002E0490704D511A5012401E000F028FBE1
:1005400000210A2206F1240709E0B0FBF2FCB0FB0F
:10055000F2F302FB1C00303078541846491C002886
:10056000F3D123462A463046BDE8F04100F019BBDE
:10057000000000002D0000002B0000002000000003
:10058000F0B40D460188090502D5214C7C4402E0F7
:100590001F4C7C440E34002100F1240608E002F0D8
:1005A0000F071209E75D42EA03721B097754491CE1
:1005B00052EA0307F3D102780023120704D5702D05
:1005C00006D009B1022311342246F0BC00F0E9BA8A
:1005D00001231034F8E770B504460D462146106833
:1005E00000F0D6FA024629462046BDE870400023B6
:1005F000C6E7D21D22F00703D3E90023C0E7036852
:10060000126843F0200303600823C3610023B7E7A7
:100610005D8B00002DE9F05F894604464FF0000A2B
:10062000DFF874B1FB44C0F820A02046E168884799
:10063000002874D0252806D0D4E901219047206AEB
:10064000401C2062F1E700265F462046E1688847AB
:100650002028054607DB312D05D2781910F8200C2B
:1006600008B10643F1E7B00701D526F00406C4F847
:100670001CA00027C4F818A02A2D09D0284605F090
:1006800011FB38B304EB8708303DC8F8185019E067
:1006900059F8041B204604EB87029161E168884702
:1006A000012F054618D1E069002820DA26F020063F
:1006B0001DE0D8F8180000EB800005EB4000303852
:1006C000C8F818002046E1688847054605F0EAFAB0
:1006D0000028EED1012F0AD02E2D08D12046E16846
:1006E00088477F1C0546022F46F02006C4DBA06920
:1006F000002803DA404246F00106A061F00701D06D
:1007000026F010066C2D0BD0682D09D04C2D39D059
:100710006A2D35D0742D35D07A2D33D016E038E0DF
:10072000E1682F4620468847B842054609D16C2F1C
:1007300026D04FF48060E16806432046884705468E
:1007400004E06C2F1AD04FF4807006430DB3A5F16E
:100750004100192802D8203546F400664A46294649
:10076000204626604E46FFF741FD80B101280BD0A0
:10077000F61D26F0070000F1080956E74020E4E7DF
:100780008020D8E70020D6E706F104094DE7284687
:1007900052E7206ABDE8F09FED8A0000401ECAB211
:1007A00010F8011F8A4202D00029F9D100207047B9
:1007B00010B5431E13F8014F002CFBD105E011F8D2
:1007C000014B002C03F8014B03D0521EF7D200213D
:1007D000197010BD30B505460B462A4613F8014B7B
:1007E00012F8010B08B1A042F8D01CB1002802D0C9
:1007F0006D1CF1E7284630BD40EA0103024630B5E2
:100800009B0710D14FF0013400E008C208C91D1B3E
:100810009D4315EAC41FF8D013F0FF0102F8011B35
:100820000DD01B0AF8E711F8013B002B02F8013B41
:1008300005D011F8013B002B02F8013BF3D130BD8C
:1008400010B5431C02E010F8011B71B18107FAD109
:100850004FF0013202C88C1A8C4314EAC211F9D04D
:10086000C01A0A0603D0C01E10BDC01A10BD0A046B
:1008700001D0801E10BD0902FCD0401E10BD40EA10
:10088000010370B59B072ED14FF00136042A2AD3FD
:1008900008C810C99D1B9D43121F15EAC61517D025
:1008A000D8B2E1B2401A50EA056110D198B2A1B2B3
:1008B000401A50EA05410AD123F07F4024F07F41DD
:1008C000401A50EA052102D1180EA0EB146070BD49
:1008D000A342DBD018BA21BA884201D9012070BDE9
:1008E0004FF0FF3070BD0AB9002070BD10F8013B19
:1008F00011F8014B63B1A3420AD1521E08D010F87F
:10090000013B11F8014B1BB1A34201D1521EEDD1A5
:10091000181B70BD421E12F8013F002BFBD111F8CD
:10092000013B002B02F8013BF9D17047032A40F24A
:10093000308010F0030C00F0158011F8013BBCF181
:10094000020F624498BF11F801CB00F8013B38BF99
:1009500011F8013BA2F1040298BF00F801CB38BFA7
:1009600000F8013B11F0030300F02580083AC0F0C5
:10097000088051F8043B083A51F804CBA0E808106D
:10098000F5E7121D5CBF51F8043B40F8043BAFF3A0
:100990000080D20724BF11F8013B11F801CB48BFFA
:1009A00011F8012B24BF00F8013B00F801CB48BF30
:1009B00000F8012B704710B5203AC0F00B80B1E869
:1009C0001850203AA0E81850B1E81850A0E8185084
:1009D000BFF4F5AF5FEA027C24BFB1E81850A0E88D
:1009E000185044BF18C918C0BDE810405FEA827CA7
:1009F00024BF51F8043B40F8043B08BF7047D207BE
:100A000028BF31F8023B48BF11F8012B28BF20F85E
:100A1000023B48BF00F8012B70474FF00002042949
:100A2000C0F0128010F0030C00F01B80CCF1040C1D
:100A3000BCF1020F18BF00F8012BA8BF20F8022B51
:100A4000A1EB0C0100F00DB85FEAC17C24BF00F8F7
:100A5000012B00F8012B48BF00F8012B70474FF025
:100A6000000200B5134694469646203922BFA0E8FE
:100A70000C50A0E80C50B1F12001BFF4F7AF09070A
:100A800028BFA0E80C5048BF0CC05DF804EB8900FB
:100A900028BF40F8042B08BF704748BF20F8022B3E
:100AA00011F0804F18BF00F8012B70477047704756
:100AB0007047000010B500F003FC001D10BD00BF22
:100AC000C96A000000487047441200207047704710
:100AD0007047704738B504460A4600206946AFF3B0
:100AE0000080002808BF38BD02460099204600F06B
:100AF000EFFB012038BD012000F02EBDF8B5AFF3AB
:100B00000080054600200C46102000BF0646A819AC
:100B1000A0420DD9324669460020AFF3008007009D
:100B200008BF00F019FD0098A04218BF0546C4197F
:100B3000FFF7C8FF05600746F01D20F007004619C3
:100B4000284600F00AF8B44208BFF8BDA21B31469F
:100B50003868BDE8F84000F0BBBB00210160C0E987
:100B6000011070471020704710B500F0ADFB006811
:100B700010BD10B5044600F0A7FB046010BD096865
:100B80004A0501D540B27047C905FCD500B270478F
:100B900009684A0501D5C0B27047C905FCD580B2C5
:100BA00070472DE9F0470D4699469246044600F1FC
:100BB00024080168880604D5E06921F0100121604D
:100BC00000E00120A84201DD471B00E00027A169E9
:100BD0007A1902EB0900081AA0612078C00602D435
:100BE0002046FFF741FC002608E0D4E901211AF86D
:100BF00006009047206A401C761C20624E45F4DBBC
:100C00002078C0060AD52046FFF72EFC06E0D4E97E
:100C1000012130209047206A401C2062381EA7F135
:100C20000107F4DC07E0D4E9012118F8050090473A
:100C3000206A401C2062281EA5F10105F3DC204635
:100C4000FFF728FC2078000602D50220BDE8F087D7
:100C50000120FBE711680268006A530501D508709E
:100C60000AE0D30501D5088006E0130603D5C217B4
:100C7000C1E9000200E008600120704770472DE9DB
:100C8000FF4F0C461E464FF0FF378BB0D2E90001F4
:100C9000DDF860800A908A46C1F30A5505B93D46E1
:100CA000002108464FF00000BAF1000F00F44000A8
:100CB00005DA00EB80004FF4400101EA50004FEAF2
:100CC0009059B9F1010F00DDB9460A9850EA4A007F
:100CD0000ED044F61050A5F2FF3545432F14B8F15D
:100CE000000F1ED07542291E1EDDC9F100021CE056
:100CF000B8F1010F4FF0000001D0302103E0F243C2
:100D000005E02154401CB042FBDB304600220021AC
:100D100021540B99C1F80880C1E900200FB0BDE84B
:100D2000F08FBD1B6D1CDEE74A4600DA694206A85B
:100D300000F084FB06AB93E8070003AB83E80700F1
:100D400050460A9900F0D2FC8DE80700A0F500504B
:100D50001F3800900398002D09DD42F21F014A461A
:100D6000084403A90390684600F031FF08E0A0F5AD
:100D700000504A461F3803A90390684600F03BFF25
:100D80008DE807000004000C03D04FF0FF3041084D
:100D900000E01046B8F1000F03D000220092154683
:100DA0001EE0751E05D400F0ADFA303262556D1E9E
:100DB000F9D5B3460122084302D000227F1C04E08B
:100DC0002078302801D100227F1E002A099786D082
:100DD0001DE0112D07DA00F095FA303262556D1CD6
:100DE00050EA0102F5D1084302D00098C8B10EE0E4
:100DF0000021681E05E0235C625C63542254401E9F
:100E0000491C8142F7DBAB46A81B401E099000201D
:100E100004F80B000B98099AC0F80880C0E9002B71
:100E20007CE711264FF0000859E72DE9F04F88467E
:100E30000446D21D22F0070191B0D1E90001CDE9AD
:100E40000A0104F0A5FE02460B98C00F01D02D2028
:100E500007E02068810701D52B2002E0202101EA6C
:100E6000C000032A099001D0072A05DB034641464A
:100E7000204600F08DFA0BE12078800601D5E0696C
:100E800000E00620B8F1650F814606D0B8F1660F84
:100E900018D0B8F1670F70D131E00020B9F1110F0F
:100EA000009001DB112301E009F101030AAA01A965
:100EB0000CA8FFF7E4FEDDE90C70002609F101053E
:100EC000834647E001204B4600904FF000470AAAB6
:100ED00001A90CA8FFF7D3FEDDE90DB00C995D4622
:100EE000002610B909F101000D18B9EB050003D473
:100EF000C0F1FF3609F10105A5EB09002BE0B9F1BE
:100F0000010F01DA4FF001090020B9F1110F009033
:100F1000484601DD112300E003460AAA01A90CA8F6
:100F2000FFF7ADFEDDE90C704D46002683462078C4
:100F300000070AD4AB4500DA5D4601A8012D04DDA7
:100F4000411911F8011C302907D04F4502DA17F179
:100F5000040F04DA012082460FE06D1EEEE7002F39
:100F600002DCED1B3E4403E0781CA84200DD7D1C42
:100F7000B81B00F1010A4FF000472078000703D4A6
:100F8000AA4501DB4FF0FF3A0021B7F1004F0DF108
:100F900043088DF8431024D002202B23002F01DAC0
:100FA0007F422D230A21021EA0F1010000DC5FB167
:100FB00097FBF1FC97FBF1F201FB1C7C17460CF14F
:100FC000300C08F801CDEEE7A8F10100037021888C
:100FD000090501D5452100E06521A0F1010800F8CF
:100FE000011C09980FA9A1EB0807FF1D00B1012002
:100FF000411901EBEA70A1693844081A401EA0614A
:101000002078C00602D42046FFF72EFA099828B1AE
:10101000D4E901219047206A401C20622078C00654
:1010200022D52046FFF720FA1EE0002E04DBB34550
:1010300002DD01A8805D00E03020D4E90121904765
:10104000206A401C2062761CAAF101005FEA000AB7
:101050000AD100F035F9C0680168405CD4E901218B
:101060009047206A401C2062281EA5F10105DCDCA7
:1010700007E0D4E9012118F8010B9047206A401CD1
:101080002062381EA7F10107F3DC2046FFF702FAC1
:10109000032011B043E6000001694A1C0261087890
:1010A000704700B58FB0CDE90131002105910549A8
:1010B0007944CDE9031011466846FFF7ABFA0FB04B
:1010C00000BD0000E5FFFFFF0A6802F8010B0A609F
:1010D0007047D1E900239A4202D2531C0B60107072
:1010E000704710B5436913B1AFF3008001E0FFF71B
:1010F000E2F9012010BD127800F124010A700022EB
:101100004A700122EDE711684FF0FF32E9E7000075
:101110002DE9FF5F15468A460446DFF8AC80F844A7
:101120000027D8E900103E46CDE9001010E03AF85B
:1011300016106A4602A800F0EFF9411C07D021788A
:10114000890603D5E269391891420DD80744761C07
:101150002078800602D5E069B84205DDAE42E6DBC4
:101160003AF816000028E2D1A069C01BA061204611
:10117000FFF77AF9D8E90010CDE90010002017E058
:101180003AF818106A4602A800F0C6F9B0F1FF3F1D
:1011900081460BD000250DF1080B05E0D4E90121B3
:1011A0001BF8050090476D1C4D45F7D308F1010071
:1011B000B0428046E4DB206A384420622046FFF7D4
:1011C00069F9BDE8FF9F00008E8000002DE9F04125
:1011D0008046D21D22F007020025D2E90002F5293F
:1011E00015A614D0011E72F1000106DA0023D0EB1F
:1011F000030063EB020211A608E0D8F800108B0789
:1012000001D50FA602E0490701D50EA6012511461A
:10121000002408F1240704E000F074F830323A5555
:10122000641C50EA0102F7D12B4632462146404663
:10123000BDE8F041FFF7B5BC000000002D00000044
:101240002B0000002000000030B4002100F1240435
:1012500008E002F00705D208303542EA4372DB08A5
:101260006554491C52EA0305F3D10468002310A217
:10127000250708D504F020040C4304D0C4690123D9
:101280000CA2641EC46130BCFFF78BBC10B50446D1
:1012900021461068FFF77CFC02462046BDE810405E
:1012A0000023D1E7D21D22F00701D1E90023CBE7CB
:1012B0000000000030000000004870473C12002091
:1012C000004870475C120020004870473C12002024
:1012D000034640688C46002818BF88423CBF03463E
:1012E0004068F8D318681844884207D00CF103000E
:1012F00020F00700001D411A521A0146081D0A601D
:10130000FFF731B830B5B0F10A024FEA900E71F133
:1013100000034EEA817EB0EB0E0061EB91014FEAD3
:10132000101E4EEA017E10EB0E0041EB11114FEA48
:10133000102E4EEA016E10EB0E0041EB11214FEA28
:10134000104E4EEA014E10EB0E0041EB11414018D9
:1013500041F100014FEAD00040EA41704FEAD1016B
:1013600010EB80054FEA810444EA907444EB0104D9
:101370006D1944EB0404521BA3414FF0000348BF16
:101380000A3200D530BD401C41F1000130BD0000E3
:101390002DE9F0411F46044603260168072A01F49F
:1013A000006004DB08B116A505E016A503E008B14E
:1013B00015A500E015A521F010002060A069C01E51
:1013C000A0610FB1401EA0612046FFF74DF84FB15C
:1013D000D4E9012138469047206A401C2062C01C95
:1013E000206206E0206AFAE7D4E9012115F8010B32
:1013F0009047761EF8D22046FFF74CF8BDE8F08102
:101400004E414E006E616E00494E4600696E6600A8
:1014100010B5436913B1AFF3008001E0FFF778FE28
:10142000012010BD128800F1240182840022C284B0
:101430000122EDE711684FF0FF32E9E72DE9F047AF
:10144000814616468AB0334878440DC88DE80D00B1
:1014500030487844801C03AC0DC884E80D0041F688
:101460009B300844372190FBF1F290FBF1F5A5F198
:10147000800501FB12041B3C02D56442012000E000
:101480000020DFF890A080460027FA44AAF1BE0AA7
:101490000DE0E00709D03246684607EB47010AEB4A
:1014A000810100F0A8FB8DE8070064107F1C002C70
:1014B000EFD1184F7F44AC3F18E0E80714D007EB9A
:1014C00004100DF1180A90E80E008AE80E00C068BA
:1014D000F04201D198190890324606A903A800F0FD
:1014E0008AFB03AB83E807006D10641C002DE4D178
:1014F00032466946B8F1000F03A802D000F067FB3E
:1015000001E000F078FBC9E90001C9F808200AB041
:10151000BDE8F087F07D000070B516460C46054624
:10152000FFF7C8FA036893F80101012806D0FF2CE1
:101530000FD8185D68B101202C7070BDD3F8070179
:101540003246214603F2071303442846BDE87040A3
:1015500018474FF0FF3070BD10B500F039F8BDE806
:10156000104000F02FB870477546FFF7A5FEAE4655
:1015700005006946534620F00700854618B020B59F
:10158000FEF7B0FEBDE820404FF000064FF0000728
:101590004FF000084FF0000B21F00701AC46ACE81B
:1015A000C009ACE8C009ACE8C009ACE8C0098D4688
:1015B000704710B50446AFF300802046BDE81040E8
:1015C000FEF77BBE002801D000F06AB8704700002B
:1015D00010B5012805D0002103A000F067F8012014
:1015E00010BD09A1F8E7000053494752544D454D3D
:1015F0003A204F7574206F662068656170206D65B4
:101600006D6F7279000000003A2048656170206DAE
:10161000656D6F727920636F7272757074656400A6
:101620004FF0013C50F8042B51F8043B9A4221D171
:10163000A2EB0C03934313EACC1317D150F8042BFD
:1016400051F8043B9A4215D1A2EB0C03934313EAE1
:10165000CC130BD150F8042B51F8043B9A4209D11A
:10166000A2EB0C03934313EACC13DBD04FF0000042
:10167000704700BFD01A01BAB1FA81F101F0180128
:1016800022FA01F0CB40C1F12001DBB2C0B2C01A96
:101690002CFA01F3D11A914311EAC311E6D1704734
:1016A00001491820ABBEFEE72600020070B50546D2
:1016B0000C460A2000E06D1C00F011F835B12878C6
:1016C0000028F8D102E0641C00F009F814B1207879
:1016D0000028F8D1BDE870400A20AFF3008008B5BB
:1016E00069468DF800000320ABBE08BD5FEA400CE0
:1016F00008BF91F0000F4FEA8C234FEAC12243EA62
:1017000051514FEA1C5018BF00F5F0404FEA30002D
:1017100018BF41F000415FEA6C5C00F02980BCF129
:10172000FF3F08BF40F080407047130C06BF120413
:101730004FF0100C4FF0000C130E04BF12020CF10E
:10174000080C130F04BF12010CF1040C930F04BF1B
:1017500092000CF1020CD30F04BF52000CF1010CEB
:1017600011464FF00002A0F11F00A0EB0C007047E3
:1017700011F0004F08BF704731F000413FF4D5AF82
:101780000B0C06BF09044FF0100C4FF0000C0B0EB1
:1017900004BF09020CF1080C0B0F04BF09010CF186
:1017A000040C8B0F04BF89000CF1020CCB0F04BF9B
:1017B00049000CF1010CCCF12003A0EB0C0022FA43
:1017C00003F302FA0CF241EA030100F10100704751
:1017D00020F07F4C80EA030023F07F47ACEB070347
:1017E00003F57C5300F0004003F1FF032DE980492D
:1017F0004FEA154B09B44FEA144325EA0B4E24EA8D
:1018000003480FF2042606EB132749083E785FEAE7
:10181000320203FB0667C7F5000707FB06F64FEA2F
:1018200054374FEAD64606F1020607FB066CCCF1A8
:10183000005C4FEA1C472CEA074C07FB06F40CFB44
:1018400006F504EB15464FEA961634BF00204FF01C
:1018500000404FEAD13706FB07FC4FEA1C4C0CFB5B
:101860000BF7D21B03FB0CF761EB07010CFB0EF728
:10187000B0EB074072EB17420CFB08F734BFA2EB4A
:101880000742B2EB074261EB17414FEA0C444FEAC3
:10189000910706FB07FC4FEA1C4C0CFB0BF7B0EB67
:1018A000C74072EB573203FB0CF734BFA2EBC742C1
:1018B000B2EBC74261EB57310CFB0EF7B0EBC70040
:1018C00072EB57720CFB08F734BFA2EBC702B2EB06
:1018D000C70261EB5771039F4FEA816141EA9211A0
:1018E00004EBCC044FEAD1374FEA826206FB07FCD7
:1018F00042EA90124FEA80604FEA1C4C0CFB0BF757
:10190000D21B03FB0CF761EB07010CFB0EF7B0EBEE
:10191000074072EB17420CFB08F734BFA2EB0742FB
:10192000B2EB074261EB17414FEA8C554FEA910742
:1019300004EB9C2406FB07FC4FEA1C4C0CFB0BF74A
:10194000B0EBC74072EB573203FB0CF734BFA2EB8E
:10195000C742B2EBC74261EB57310CFB0EF7B0EB5D
:10196000C70072EB57720CFB08F734BFA2EBC7023B
:10197000B2EBC70261EB577115EB4C254FEA816161
:1019800041EA92114FEA82624FEAD13742EA90125D
:1019900006FB07FC44F100044FEA80604FEA1C4C50
:1019A0000CFB0BF7D21B03FB0CF761EB07010CFBE5
:1019B0000EF7B0EB074072EB17420CFB08F734BF91
:1019C000A2EB0742B2EB074261EB174115EB1C1586
:1019D0004FEA813141EA92414FEA823242EA904233
:1019E0004FEA80304FEA0C7644F1000448EA0343A2
:1019F0004EEA0B484FF0000EB2EB080C71EB0307F8
:101A000024BF624639464EEB0E0E4FF0000B001815
:101A1000524149414BEB0B0BB2EB080C71EB030746
:101A20007BF1000B24BF624639464EEB0E0E4FF0A1
:101A3000000B0018524149414BEB0B0BB2EB080C69
:101A400071EB03077BF1000B24BF624639464EEB76
:101A50000E0E51EA020718BF46F0010616EB0E768D
:101A600055F1000254F1000103D5BDE88901BDE83C
:101A70000088BDE88901BDE80048B619524141EB34
:101A80000101A3F10103704780807F7E7D7C7B7A1A
:101A90007978777676757473727171706F6E6E6D1A
:101AA0006C6C6B6A6A6968686766666564646363C0
:101AB00062616160605F5F5E5E5D5D5C5C5B5B5A46
:101AC0005A595958585757565655555554545353B3
:101AD00052525251515050504F4F4F4E4E4D4D4D0E
:101AE0004C4C4C4B4B4B4A4A4A4949494848484759
:101AF0004747474646464545454444444443434397
:101B00004342424242414141002B26D4770021D03A
:101B10001CB54FEA370703B44FF010004FF0100127
:101B20004FF000000FBCBDE810400BF1010BBBF102
:101B3000010F08BF5FEA170722BF12F1010211F17E
:101B400001014FF0004143F1000300F0004043EA7F
:101B500000007047F9D35708DAE746EA064613F162
:101B6000400F4FEA16461FDD13F1200FDFBF16436B
:101B70000A46002120335B42C8D0C3F1200746EA61
:101B8000064602FA07F74FEA164646EA0706C3F189
:101B9000200722FA03F201FA07F721FA03F14FF0C6
:101BA000000342EA0702B1E746EA020646EA0646B1
:101BB0004FEA164646EA0106BCBF46EA0646360C20
:101BC0004FF000034FF000024FF000019EE72DE9B7
:101BD000C048934630B491E8380007C831EA400C59
:101BE00048BF34EA430C03D5FFF7F2FDFFF78CFF43
:101BF000F0BCBDE800882DE9C048934630B491E8B8
:101C0000380007C810F0804F08BF13F0804F03D191
:101C100000F005F8FFF778FFF0BCBDE8008820F081
:101C20007F4780EA030023F07F4C07EB0C03A3F50A
:101C30007C5300F00040A3F1FE0392F0000F00F08F
:101C4000B38095F0000F00F077802DE901494FEA4D
:101C500011404FEA144621EA004800FB06FC24EA42
:101C6000064708FB06F607FB08F800FB07F718EB2A
:101C700006484CEB164C4FEA124B18EB07484FEA5C
:101C800015464CEB174022EA0B4E0BFB06FC25EAEF
:101C900006470EFB06F607FB0EFE0BFB07F71EEBD7
:101CA000064E4CEB164C4FF000061EEB074E4CEB6D
:101CB000174B18EB0B0840F1000018EB0E0B58EB1C
:101CC000000840F100008F1A4FF000013CBFC943EB
:101CD000661B14BFB5EB040C00213CBFC943F61BC7
:101CE0004FEA17444EEA8E0E27EA04454FEA1C4796
:101CF00004FB07622CEA074C05FB07F70CFB05F613
:101D000004FB0CFC16EB074642EB174216EB0C46A5
:101D100042EB1C421BEB060658EB0202414146EA2D
:101D20009E0601D5BDE80189B619524141EB01017A
:101D3000A3F10103BDE801894FEA14454FEA1147B9
:101D400024EA054621EA074C05FB07F406FB07F7E2
:101D50000CFB06F105FB0CFC11EB074144EB1744AF
:101D60004FEA124711EB0C4144EB1C4422EA074CAA
:101D700005FB07F206FB07F70CFB06F605FB0CFC60
:101D800016EB074642EB174216EB0C4642EB1C459E
:101D90006A1854F1000148BF7047B619524141EB2F
:101DA0000101A3F10103704795F0000F37D04FEA0E
:101DB00011424FEA144721EA024624EA074C02FB8B
:101DC00007F106FB07F70CFB06F402FB0CFC14EB17
:101DD000074441EB17414FEA154714EB0C4441EB24
:101DE0001C4125EA074C02FB07F506FB07F70CFB35
:101DF00006F602FB0CFC16EB074645EB174516EB07
:101E00000C4645EB1C42121951F1000148BF7047C6
:101E1000B619524141EB0101A3F1010370474FEAAA
:101E200014454FEA114724EA054621EA074C05FB11
:101E300007F106FB07F70CFB06F24FF0000605FB67
:101E40000CFC12EB074241EB174112EB0C4251EB39
:101E50001C4148BF7047921841EB0101A3F10103F7
:101E6000704721B1826842F00102826003E082681B
:101E700022F001028260704710B504461248844285
:101E800008D10121401502F0B5FE0021601502F0D5
:101E9000B1FE17E00D48844208D10121001502F07F
:101EA000A9FE0021201502F0A5FE0BE0084884429F
:101EB00008D10121C80302F09DFE00214FF400402B
:101EC00002F098FE10BD00000024014000280140EF
:101ED000003C0140014600208A6802F004020AB179
:101EE000012000E0002070470146C86C80B27047B6
:101EF0000246002013680B400BB1012000E00020D7
:101F00007047014600208A6802F008020AB10120E9
:101F100000E000207047000030B50246002000239A
:101F200050680F4C20400D790C6844EA052420438A
:101F3000506090680B4C2040D1E902542C434D79FD
:101F400044EA450420439060D06A20F470000C7C81
:101F5000641EE4B2234340EA0350D06230BD000067
:101F6000FFFEF0FFFDF7F1FFF0B504460D4600203F
:101F70000021092D11DDE068A5F10A0606EB4607F0
:101F8000072606FA07F18843A5F10A0606EB46067E
:101F900003FA06F10843E0600CE0206905EB450711
:101FA000072606FA07F1884305EB450603FA06F112
:101FB00008432061072A0FDA606B561E06EB86077E
:101FC0001F2606FA07F18843561E06EB860605FA19
:101FD00006F10843606322E00D2A0FDA206BD61F5A
:101FE00006EB86071F2606FA07F18843D61F06EB85
:101FF000860605FA06F10843206310E0E06AA2F1C4
:102000000D0606EB86071F2606FA07F18843A2F1A4
:102010000D0606EB860605FA06F10843E062F0BD00
:10202000816841F008018160704721B1826842F403
:10203000A002826003E0826822F4A00282607047FE
:10204000816841F0040181607047000000B587B0ED
:1020500001214FF4017002F0BDFD4FF4004002F089
:102060008DFD1320ADF8040000208DF8070001A9B4
:10207000184800F0BFFC1848FFF7FEFE0020029051
:102080008DF80C0001208DF80D004FF460200490B5
:102090000020059002208DF8180002A90E48FFF7D5
:1020A0003BFF01210C48FFF7DCFE0B48FFF7B8FFB0
:1020B00000BF0948FFF725FF0028FAD10648FFF7BF
:1020C000BFFF00BF0448FFF705FF0028FAD107B0A3
:1020D00000BD000000080140002401402DE9F04748
:1020E000074689469046DDF820C0002100220024E2
:1020F00000260025002004460246014645E0002651
:1021000001E0491C761C614502D2585C2028F8D0B9
:10211000614500D13BE0ACEB0100022807D3585CDD
:102120000D2804D1481C185C0A2800D12CE0585C0A
:102130000A2800D128E01EB16FF02B00BDE8F0871F
:10214000585C3D2806D1601C0446022802D96FF075
:102150002B00F3E7585C7F2806DC585CDFF8E4A02E
:102160001AF800007F2802D16FF02B00E6E7585CD8
:10217000DFF8D0A01AF80000402803DA14B16FF09D
:102180002B00DBE7521C00BF491C6145B7D300BFE1
:102190001AB90020C8F80000D0E7D00800EB4000D2
:1021A0004FEA400A02F0070000EB40004000C01D6B
:1021B0000AEBD002121B0FB1914504D2C8F80020DF
:1021C0006FF02900BAE703240020064602463D4688
:1021D00031E018780D2805D018780A2802D0187830
:1021E000202800D125E01878DFF858A01AF8000060
:1021F000402801D1012000E00020241A1878DFF8DF
:1022000044A01AF8000066F39F100646501C0246D0
:1022100004280DD1002214B1300C05F8010B012C5B
:1022200002D9300A05F8010B022C01D905F8016B1F
:1022300000BF491E5B1C0029CBD1E81BC8F8000079
:1022400000207BE7669000082DE9F04F074689469D
:10225000099C00250026AC46A846AA4600211CB9C8
:1022600000201060BDE8F08F0320B4FBF0F04FF0C9
:10227000030BB4FBFBFE0BFB1E4BBBF1000F02D0AC
:102280004FF0010B01E04FF0000B00EB0B06B6F135
:10229000804F05D34FF0FF3010606FF02900E1E769
:1022A000B600701C814500D327B9701C10606FF018
:1022B0002900D7E70320B4FBF0F000EB400600252F
:1022C000394629E013F801CB13F8018B13F801AB61
:1022D0002D484FEA9C0B10F80B0001F8010B4FEA58
:1022E0000C1000EB281000F03F00DFF89CB01BF84A
:1022F000000001F8010B4FEA880000EBAA1000F083
:102300003F001BF8000001F8010B0AF03F001BF82A
:10231000000001F8010BED1CB542D3D3A5422DD22C
:1023200013F801CB681CA04202D213F8010B00E0A5
:10233000002080461448CCF3850B10F80B0001F800
:10234000010B4FEA0C1000EB281000F03F00DFF803
:1023500038B01BF8000001F8010B681CA04207D23E
:102360003F2000EA88001BF8000001F8010B02E0A2
:102370003D2001F8010B3D2001F8010BC81B106046
:102380000020087000BF6DE72690000808B5012105
:10239000082002F01FFC4FF48070ADF80000102000
:1023A0008DF8030003208DF802006946054800F00F
:1023B00021FB4FF48071034800F0A7FB002000F0E0
:1023C00003F808BD000C014010B5044622464FF446
:1023D0008071034800F09DFB0248047010BD0000AE
:1023E000000C0140B30D002000BFFEE77047000065
:1023F00010B5022003F0C2F9002001F0F7FB102312
:1024000042A20021084601F077FD03E04FF4FA7084
:1024100003F01EFD43A145A000F084FA0028F5D189
:1024200010234EA2042101F067FD41F2883003F031
:102430000FFD002001F0DAFB10234FA20021084617
:1024400001F05AFD41F2883003F002FD032003F051
:1024500095F9002001F0CAFB10234CA20021084688
:1024600001F04AFD41F2883003F0F2FC07E02DA1B3
:102470002EA000F057FA4FF4FA7003F0E9FC01F0D7
:102480000FFF0028F3D101F0B1FB4FF4FA6003F025
:10249000DFFC00220221082001F064FC012202215D
:1024A000182001F05FFC02221146282001F05AFC9E
:1024B00003220221382001F055FC04220221482089
:1024C00001F050FC05220221582001F04BFC0622AD
:1024D0000221682001F046FC07220521102001F0AE
:1024E00041FC08220521202001F03CFC09220521A5
:1024F000302001F037FC0A220521402001F032FC97
:102500000B220521602001F02DFC10BD436F6E6E83
:10251000656374204D51545473205365727665720F
:102520002E2E2E00434F4E4E4543540041542B4314
:10253000495053544152543D22544350222C226D51
:10254000717474732E6865636C6F7564732E636F3A
:102550006D222C313838330D0A000000436F6E6E47
:10256000656374204D515454205365727665722012
:102570005375636365737300446576696365206CA6
:102580006F67696E202E2E2E00000000446576696C
:1025900063652053756363657373000038B50C225F
:1025A0000021084601F0DEFB0D220021102001F081
:1025B000D9FB0E220021202001F0D4FB0F220021A4
:1025C000302001F0CFFB10220021402001F0CAFB97
:1025D00011220021502001F0C5FB122200216020B1
:1025E00001F0C0FB13220021702001F0BBFB14227C
:1025F0000221002001F0B6FB15220221102001F07B
:10260000B1FB10233A220221202001F0DFFB5948C0
:10261000006801280FD10A21002000F099FA5649DC
:10262000888000F079FC00F033FC044605F000FFE0
:102630005149886002E000204F49886010200090D6
:102640004D48032302218268282001F011FC172243
:102650000221402001F086FB18220221502001F0C7
:1026600081FB10233A220221602001F0AFFB0A21F6
:10267000012000F06DFA4149888000F079FD00F0FA
:1026800033FD044605F0D4FE3C49886010200090DC
:102690000846032302218268682001F0E9FB1A2220
:1026A0000421002001F05EFB1B220421102001F018
:1026B00059FB1C220421202001F054FB1D2204217F
:1026C000302001F04FFB1E220421402001F04AFB84
:1026D0001020032300902A4804210268482001F0BA
:1026E000C7FB032327A20521602001F005FC1F2260
:1026F0000621002001F036FB20220621102001F0E7
:1027000031FB21220621202001F02CFB2222062170
:10271000302001F027FB23220621402001F022FB7C
:102720001948006801280FD10A21042000F010FA8E
:102730001649888000F096FC00F040FC044605F045
:1027400077FE1249886002E000201049886010205E
:1027500000900E48032306218268482001F088FB80
:10276000032308A20721602001F0C6FB5D20084971
:10277000086038BD88000020180F0020240F0020BA
:10278000C40D002050504D008C000020300F002060
:102790006000002010B54FF400710348FEF73DF9CA
:1027A00000200249088010BD3C100020D00D002000
:1027B00070B50546002400BF00F002F980B90DA1F4
:1027C0000E48FEF707F8044654B13A212046FDF7BB
:1027D000E5FF044614B1641C204670BD0020FCE7F0
:1027E000052003F035FB281EA5F101018DB2E3D1D0
:1027F00000BFF2E74950442C000000003C100020CC
:1028000010B5FFF7C7FF20A1214803F02DF903E021
:102810004FF4FA7003F01CFB1EA11FA000F082F819
:102820000028F5D11EA11A4803F01EF903E04FF469
:10283000FA7003F00DFB17A11CA000F073F800283C
:10284000F5D11EA1124803F00FF903E04FF4FA701E
:1028500003F0FEFA0FA11DA000F064F80028F5D1E6
:102860001EA10B4803F000F903E04FF4FA7003F0E7
:10287000EFFA1DA11EA000F055F80028F5D123A104
:10288000034803F0F1F810BD312E2041540D0A0029
:10289000003801404F4B000041540D0A0000000079
:1028A000322E2043574D4F44450D0A0041542B43CF
:1028B000574D4F44453D310D0A000000332E204155
:1028C000542B4357444843500D0A000041542B43B6
:1028D00057444843503D312C310D0A00342E2043DB
:1028E000574A41500D0A0000474F542049500000FC
:1028F00041542B43574A41503D226A696E222C2293
:102900003132333435363738220D0A00352E204522
:1029100053503832363620496E6974204F4B0D0AB9
:10292000000000002DE9F04104460D46C82620466F
:10293000FDF786FF87B23A4621460D4803F0B8F806
:102940000FE000F03DF848B929460A48FDF742FF7C
:1029500020B1FFF71FFF0020BDE8F0810A2003F03F
:1029600077FA301EA6F10101CEB2EAD10120F3E7D9
:10297000004400403C10002030B589B004460D46AC
:10298000FFF708FF2A4608A101A8FDF73BFD0AA1B1
:1029900001A8FFF7C7FF20B92A462146074803F0E0
:1029A00087F809B030BD000041542B4349505345CE
:1029B0004E443D25640D0A003E00000000440040E6
:1029C0000A48008808B9012070470848008808496B
:1029D0000988884203D1002004490880F4E70348AD
:1029E0000088034908800120EEE70000D00D002098
:1029F000D20D00202DE9F0410246002500260020DE
:102A000000230024002791F803C00CF00F0591F873
:102A100003C00CF0100CBCF1000F03D091F802C001
:102A20004CEA050591F800C0BCF1000F31D01468E4
:102A300000202BE04FF0010C0CFA00F3B1F800C0BD
:102A40000CEA03069E4220D183004FF00F0C0CFAD3
:102A500003F7BC4305FA03FC4CEA040491F803C0F5
:102A6000BCF1280F06D14FF0010C0CFA00FCC2F8A3
:102A700014C00AE091F803C0BCF1480F05D14FF033
:102A8000010C0CFA00FCC2F810C0401C0828D1D37D
:102A90001460B1F800C0BCF1FF0F34DD54680020B1
:102AA0002EE000F1080C4FF0010808FA0CF3B1F821
:102AB00000C00CEA03069E4221D183004FF00F0CA8
:102AC0000CFA03F7BC4305FA03FC4CEA040491F842
:102AD00003C0BCF1280F05D100F1080C08FA0CF86E
:102AE000C2F8148091F803C0BCF1480F07D100F17F
:102AF000080C4FF0010808FA0CF8C2F81080401CCE
:102B00000828CED35460BDE8F0814161704701616F
:102B100070470AB1016100E04161704710B5044699
:102B20000723012221460948FFF71EFA0121074821
:102B3000FFF77BFA00BF02210448FFF7D9F900280C
:102B4000F9D00248FFF7D0F910BD00000024014081
:102B50002DE9F04107460C460025002608E03846DE
:102B6000FFF7DCFF0544052003F072F9701CC6B2C4
:102B7000A642F4DBB5FBF4F080B2BDE8F08100BF03
:102B8000FEE7000010B54FF4A06001F025F802F058
:102B900081FB03F03BF94FF4165002F063FE4FF453
:102BA000E13002F0B5FE4FF4165002F007FF1B486B
:102BB00002681B4801881B4803F02EFA1A48026875
:102BC0001A4801881A4803F037FA1A4802681A4866
:102BD00001881A4803F028FA00F030F9FFF7D6FB15
:102BE000FFF734FA01F022F8102315A2002108465D
:102BF00001F082F941F2883003F02AF9002000F058
:102C0000F5FF012002F0BAFD102312A200210846B0
:102C100001F072F9642003F01BF910BD9C00002044
:102C2000A0000020180F0020A4000020A800002011
:102C3000240F0020AC000020B0000020300F002046
:102C4000486172647761726520696E6974202E2E06
:102C50002E000000486172647761726520696E69B8
:102C600074204F4B0000000010B501210748FFF70A
:102C70004EFF02210548FFF74AFF02210348FFF7F4
:102C800044FF01210148FFF740FF10BD000C014047
:102C900010B501210548FFF73AFF02210348FFF76D
:102CA00034FF02210148FFF732FF10BD000C014044
:102CB00010B501210348FFF72AFF01210148FFF762
:102CC00024FF10BD000C01400021002005E0124A45
:102CD000125C0A44D1B2421CD0B20528F7DB0E4A7E
:102CE00052798A4200D070470C4A1268012A0ED1EC
:102CF000094A9378527803EB0222094B1A601A466C
:102D000012680A23B2FBF3F2054B1A6002E00022BC
:102D1000034B1A6000BFE6E73C0F0020B80D00200F
:102D2000C40D002008B53EE09DF800002149224A6C
:102D30001278885420490978481CC11700EB1161AA
:102D40000912A0EB01211C4A11700A201B490870CE
:102D50001B480078012816D110460078062808D1B3
:102D6000002011460870FFF7AFFF002014490870DB
:102D700008BD11480078062804DD00200E490870BF
:102D80000F4908700FE09DF800002C280AD10C486C
:102D9000007838B92C2007490870012008490870CC
:102DA0000549087000BF684602F004F90028BBD14D
:102DB00000BFDDE73C0F0020C10D0020C80D002042
:102DC000C00D00200448006820B103480068401E80
:102DD0000149086070470000CC0D002003480068DE
:102DE00008B1012070470020FCE70000CC0D002056
:102DF00000B5FFF7F3FF00B100BD0A2000F018F89E
:102E00000848007860B107480078401E05490870FE
:102E10000846007820B9002003490870034908706B
:102E200000BFE9E7C80D0020C00D0020C10D002043
:102E30000149086070470000CC0D002008B5012151
:102E4000102001F0C7FE4FF40050ADF80000102034
:102E50008DF8030003208DF8020069460348FFF750
:102E6000C9FD012000F004F808BD00000010014079
:102E700010B5044684F001024FF400510248FFF7F8
:102E800048FE0248047010BD00100140B20000204E
:102E90002DE9FC5F1A49888805F0EAFA05461949C8
:102EA00005F0FAFA0446184905F000FA8246514640
:102EB000144805F0BDFB0546514605F0F7F90446F8
:102EC000124905F0E9FA83460D480168584605F0B5
:102ED000EDF9009005F05CF980464FF040420C4B54
:102EE00003F0DCFC06464FF020420A4B04F040FEA3
:102EF000044604F075FB01900198BDE8FC9F0000BA
:102F0000180F00203333534000F07F45000020416C
:102F1000F753F7BF9B9458402DE9F04F85B01F49F8
:102F2000888805F0A5FA05461D4905F0B5FA04465E
:102F30001C4905F0BBF904901948049905F078FB89
:102F40000546049905F0B2F90446174905F0A4FABC
:102F5000039016480290029805F01AF904460D46AF
:102F60004FF06042124B1348134903F097FCCDE930
:102F70000001039805F00CF98046DDE9002304F018
:102F80001DFC064622462B4604F0F2FD824604F064
:102F900027FB0249086005B0BDE8F08F180F00203C
:102FA0003333534000F07F45000020410000A03F34
:102FB000A7F2E5BFEBFA4F397209BA3F2DE9F04F9E
:102FC00089B02249888805F053FA0546204905F062
:102FD00063FA04461F4905F069F907901C480799F0
:102FE00005F026FB0546079905F060F904461A49E5
:102FF00005F052FA06904FF07F500590059805F0C5
:10300000C7F804460D4611480168069805F04EF9C8
:10301000019005F0BDF84FF04042104BCDE90201A0
:1030200003F03CFC80464FF020420D4B04F0A0FD25
:10303000064622462B4604F09BFD824604F0D0FA59
:103040000490049809B0BDE8F08F0000300F002014
:103050003333534000F07F4500002041F753F7BF62
:103060009B9458402DE9F05F1849888805F000FAD4
:103070000546174905F010FA0446164905F016F9F9
:1030800082465146124805F0D3FA0546514605F0EE
:103090000DF90446104905F0FFF983464FF06042F0
:1030A0000E4B0F480F4903F0F9FB06460F465846F2
:1030B00005F06EF8804632463B4604F07FFB04463E
:1030C00004F08EFA01490860BDE8F09F300F00203F
:1030D0003333534000F07F4500002041A7F2E5BFA5
:1030E000EBFA4F397209BA3F2DE9FC5F1A4988881B
:1030F00005F0BEF90546194905F0CEF90446184910
:1031000005F0D4F882465146144805F091FA054678
:10311000514605F0CBF80446124905F0BDF9834647
:103120000D480168584605F0C1F8009005F030F8E8
:1031300080464FF040420C4B03F0B0FB06464FF088
:1031400020420A4B04F014FD044604F049FA0190B1
:103150000198BDE8FC9F0000240F0020333353404A
:1031600000F07F4500002041F753F7BF9B94584083
:103170002DE9F04F85B02049888805F079F905469A
:103180001E4905F089F904461D4905F08FF80490A1
:103190001A48049905F04CFA0546049905F086F89A
:1031A0000446184905F078F903904FF07F500290DB
:1031B000029804F0EDFF04460D464FF06042124BBA
:1031C0001248134903F06AFBCDE90001039804F0AB
:1031D000DFFF8046DDE9002304F0F0FA06462246D0
:1031E0002B4604F0C5FC824604F0FAF90249086057
:1031F00005B0BDE8F08F0000240F002033335340AA
:1032000000F07F4500002041A7F2E5BFEBFA4F39FF
:103210007209BA3F10B50446207B012802D120680C
:10322000FDF7A1F8002020606060A060207310BD51
:103230000246002301230DE002F07F000870D2094E
:103240002AB1087840F080000870491C01E0184657
:1032500070475B1C042BEFDD4FF0FF30F8E770B5D3
:1032600004460E460025206898B901202073304698
:10327000FDF74AF820602068E0B100206060A66099
:1032800003E00020216848556D1CA068A842F8D8CA
:1032900010E00220207303E00020216848556D1CD7
:1032A000A068A842F8D800206060A068B04201D2AF
:1032B0000020206070BD00002DE9FF4F83B08246E2
:1032C0008B469146159C0025002002900F27019007
:1032D0004846FDF7B5FA0FFA80F8B9F1000F03D1AF
:1032E000012007B0BDE8F08F08F10200384487B232
:1032F000109808B145F00205129878B145F0040520
:103300001298FDF79DFAC0B202901398FDF798FA53
:1033100001460298001D0844384487B2119820B134
:10332000012804D0022808D104E000BF07E045F0DE
:103330000C0504E045F0140501E00220D1E700BFD0
:10334000149808B145F02405BAF1000F02D0BBF182
:10335000000F01D10320C4E745F0C0055046FDF73A
:103360006FFA06465846FDF76BFA3044001D3844A4
:1033700087B239462046FFF772FF206808B904205B
:10338000AFE739462068FDF748FB10216268501C02
:10339000606020688154D4E90023D118781FFFF7BA
:1033A00047FF00B201900198002804DA2046FFF799
:1033B00031FF052095E761680198084460600021AD
:1033C0006268501C60602068815404216268501C4F
:1033D0006060206881544D216268501C60602068E4
:1033E000815451216268501C6060206881545421CE
:1033F0006268501C6060206881546268501C606084
:103400002068815404216268501C606020688154E7
:103410006168481C6060206845540698010A62682B
:10342000501C6060206881540698C1B26268501CCC
:10343000606020688154C8F307216268501C606096
:10344000206881546268501C6060206800F8028027
:10345000D4E90012881842464946FDF7A9F9606888
:103460004044606005F00400B8B30026139808B922
:1034700038A013901298FDF7E3F986B2310A62681A
:10348000501C6060206881546268501C6060206835
:103490008654D4E90012881832461299FDF788F94B
:1034A0006068304460601398FDF7CAF986B2310A4B
:1034B0006268501C6060206881546268501C6060C3
:1034C00020688654D4E90012881832461399FDF713
:1034D0006FF960683044606000BF05F08000C8B1DB
:1034E0005046FDF7ADF986B2310A6268501C606043
:1034F000206881546268501C606020688654D4E95A
:103500000012881832465146FDF752F9606830447F
:10351000606000BF05F04000C8B15846FDF790F963
:1035200086B2310A6268501C60602068815462680B
:10353000501C606020688654D4E900128818324616
:103540005946FDF735F960683044606000BF0020DF
:10355000C7E60000000000002DE9FF4F83B083465E
:1035600017469946139C00250026002002900190E2
:103570008046BBF1000F03D1012007B0BDE8F08FFA
:1035800000260AE00498805D232803D00498805D1B
:103590002B2801D10220F0E7761C0498805D0028DA
:1035A000F0D148F03008119808B148F0010806EB56
:1035B0000900851C109820B1012804D002280AD1E6
:1035C00005E000BF09E048F00208AD1C05E048F046
:1035D0000408AD1C01E00320CFE700BF8FB33878AB
:1035E000022821D14FF0000A00BF50460AF1010A1B
:1035F000385C7D28F9D1AAF1030A0AF1070002908C
:103600000298A9EB000AE81CA0EB0A012046FFF78C
:1036100026FE206808B90420AFE7EA1CA2EB0A01E5
:103620002068FDF7FAF919E0691D2046FFF717FE3B
:10363000206808B90420A0E7691D2068FDF7EDF9AE
:103640000CE0FFE7691D2046FFF709FE206808B976
:10365000042092E7691D2068FDF7DFF96168481CC6
:103660006060206800F80180D4E9000281182846D3
:10367000FFF7DEFD01900198002804DA2046FFF7ED
:10368000C9FD052079E76168019808446060C6F3C8
:1036900007216268501C6060206881546268501C79
:1036A000606020688654D4E9001288183246049974
:1036B000FDF77EF8606830446060109860B14FEAB2
:1036C0001B216268501C6060206881546268501C35
:1036D0006060206800F802B0C7B1387802280BD1CA
:1036E000D4E9001288183946029AFDF71FF961687B
:1036F00002980844606009E0D4E9001288184A463C
:103700003946FDF713F9606848446060002034E7EB
:103710002DE9F04190B004460D4616469846169F96
:1037200023460CA2302104A80095FCF781FE01205D
:103730000021CDE9000133460A4604A9CDE902077C
:103740000A20FFF709FF18B1012010B0BDE8F08191
:103750000020FAE7247379732F25732F25732F74B4
:1037600068696E672F70726F70657274792F706FF1
:10377000737400002DE9FF5F8046174699460E9C42
:103780000026B246B3460025B8F1000F03D1012050
:1037900004B0BDE8F09F0BE057F8250008B90220FF
:1037A000F6E757F82500FDF74BF80644681CC5B24C
:1037B0004D45F1DB09EB4900801C00EB060A0AF1DC
:1037C00005012046FFF74BFD206808B90320DFE71D
:1037D00082216268501C606020688154D4E9000234
:1037E00081185046FFF724FD0FFA80FBBBF1000F54
:1037F00004DA2046FFF70EFD0420C9E7606858444C
:1038000060604FEA18216268501C60602068815433
:103810006268501C6060206800F80280002524E087
:1038200057F82500FDF70CF80646C6F30721626835
:10383000501C6060206881546268501C6060206881
:103840008654D4E90023D01857F825103246FCF7E7
:10385000AFFF6068304460600198C1B26268501C7C
:10386000606020688154681CC5B24D45D8DB0020DB
:103870008EE7F0B504460D46264601230020106071
:10388000002114E0775C07F07F07106807FB030056
:103890001060705C00F0800008B9481CF0BDDB01CE
:1038A000B3F5001F02D36FF00100F7E7491CA942EE
:1038B000E8DB4FF0FF30F1E701464878022801D0FD
:1038C00001207047887810B18878012801D1C87824
:1038D000F7E7FF20F5E700002DE9FC5F81460D4684
:1038E00014461E46DDE90C8B99F8000000F00F0A23
:1038F000002001900AF008000090CAF341008BF804
:10390000000001AA042109F10100FFF7B2FF4844B9
:10391000471C0198022802D30AF0010010B1FF20D1
:10392000BDE8FC9F7878397840EA01202080208823
:10393000801C0199884201D9FF20F1E754A1B81CED
:10394000FCF748FF08B10F20EAE79BF8000020B120
:1039500001283DD0022877D13BE0009808B1FF2034
:10396000DEE72188481CFCF7CFFC2860286808B9EE
:10397000FF20D5E72288511C2868FDF74EF82288E1
:10398000B91C2868FCF7D2FF0198801E2188401AD4
:10399000A8F80000B8F80010481CFCF7B5FC30602F
:1039A000306820B92868FCF7DEFCFF20B8E7B8F8DB
:1039B0000020511C3068FDF730F8B8F80020B4F84A
:1039C00000C0BB1C0CEB03013068FCF7AFFF4FE0FD
:1039D00000BF2088801C0199884201D9FF209FE701
:1039E0002088C01C395C2088801C385C41EA00219A
:1039F0000E9801800E9808B9FF2091E72188481C95
:103A0000FCF782FC2860286808B9FF2088E7228834
:103A1000511C2868FDF701F82288B91C2868FCF7BA
:103A200085FF0198001F2188401AA8F80000B8F807
:103A30000010481CFCF768FC3060306828B9286822
:103A4000FCF791FCFF206BE710E0B8F80020511C58
:103A50003068FCF7E2FFB8F80020B4F800C03B1D66
:103A60000CEB03013068FCF761FF01E0FF2057E732
:103A700000BF2B212846FCF791FE20B923212846C0
:103A8000FCF78CFE08B1FF204AE7002048E7000061
:103A9000246372657100000001464878022801D055
:103AA00001207047887820B9C8780A2801D1002001
:103AB000F7E70120F5E70000F8B50446FF27207876
:103AC0000511012D01DB0E2D01DD3846F8BD032D5A
:103AD00024D1002000906A460421601CFFF7C9FE33
:103AE0002044461C0098022803D3207800F00100EF
:103AF00008B1FF20EAE77078317840EA0120801CA5
:103B00000099884201D9FF20E0E706A1B01CFCF72C
:103B100061FE08B10F2700E0032700E02F4638467A
:103B2000D4E7000024637265710000000146FF20A5
:103B30008A78A2B9CA78142A11D10A7932B1012A35
:103B400005D0022A04D0802A06D103E000BF00BFBE
:103B5000002003E0012001E0022000BF00BF704709
:103B600000BFFEE77047000070B5002100230F2260
:103B7000C47804B3154C246804F4E064C4F5E0642C
:103B8000210AC1F10403CA40447804FA03F184789D
:103B90001440214309010E4C0678A155047804F025
:103BA0001F050124AC4005786D11AD0005F1E0253D
:103BB000C5F8004109E0047804F01F050124AC4079
:103BC000044D0678761145F8264070BD0CED00E0F6
:103BD00000E400E080E100E002490143024A116094
:103BE000704700000000FA050CED00E070B50646D5
:103BF000002418E004F1B000002100F09AF900213F
:103C0000084600F096F90021102000F092F90025F6
:103C100005E00121304600F08CF9681CC5B2802D0A
:103C2000F7DB601CC4B2082CE4DB70BD08B50121D1
:103C3000082000F0CFFF0320ADF8000010208DF821
:103C4000030003208DF8020069463B48FEF7D2FED0
:103C500003213948FEF75BFFC82002F0F9F8002184
:103C6000AE2000F066F90021084600F062F900215C
:103C7000102000F05EF90021402000F05AF90021E8
:103C8000B02000F056F90021812000F052F9002107
:103C9000FF2000F04EF90021A12000F04AF9002198
:103CA000A62000F046F90021A82000F042F90021EA
:103CB0003F2000F03EF90021C82000F03AF9002131
:103CC000D32000F036F90021084600F032F9002137
:103CD000D52000F02EF90021802000F02AF90021E3
:103CE000D82000F026F90021052000F022F900215B
:103CF000D92000F01EF90021F12000F01AF900216E
:103D0000DA2000F016F90021122000F012F900214B
:103D1000DB2000F00EF90021302000F00AF900212C
:103D20008D2000F006F90021142000F002F9002196
:103D3000AF2000F0FEF808BD000C014070B504464D
:103D40000D4605F1B000002100F0F3F8102141EA22
:103D50001410002100F0EDF804F00F00002100F035
:103D6000E8F870BD2DE9F04180460E461546002763
:103D700031464046FFF7E2FF00240AE0124A02EB18
:103D80008511085D012100F0D4F8781CC7B2601CD1
:103D9000C4B2102CF2DB701CC1B24046FFF7CEFF5C
:103DA00000240CE06900491C074A02EB4111085D40
:103DB000012100F0BEF8781CC7B2601CC4B2102C00
:103DC000F0DBBDE8F0810000B30000202DE9F047F2
:103DD00007460E469046994600250024A8F120008B
:103DE000C5B27F2F02DD0027B01CC6B2B9F1100F9B
:103DF00024D131463846FFF7A1FF002408E004EB48
:103E00000511194A505C012100F093F8601CC4B2FE
:103E1000082CF4DB701CC1B23846FFF78FFF00247A
:103E200009E004EB051108310F4A505C012100F054
:103E300080F8601CC4B2082CF3DB12E0314638462F
:103E4000FFF77CFF00240AE005EB4501074A02EB7F
:103E50004101085D012100F06CF8601CC4B2062C21
:103E6000F2DBBDE8F0870000368A00080E88000803
:103E70002DE9FF5F074691461E460E9D4FF0000A52
:103E8000002435E0301B401EC1B20A2002F06EF95A
:103E9000B9FBF0F00A21B0FBF1F201FB1208BAF114
:103EA000000F14D1701EA04211DDB8F1000F0CD12B
:103EB000AB4605EBDB71491001FB0471C8B22B4620
:103EC00020220199FFF782FF10E04FF0010AAB4674
:103ED00005EBDB71491001FB0471C8B208F1300138
:103EE000CAB22B460199FFF771FF00BF601CC4B234
:103EF000B442C7DBBDE8FF9F2DE9F04104460F4601
:103F00001546984600260FE0AA5D434639462046EE
:103F1000FFF75CFF04F10800C4B2782C02DD002436
:103F2000B81CC7B2701CC6B2A85D0028ECD1BDE8B1
:103F3000F08170B504460D461DB1E0B201F012FEED
:103F400002E0E0B201F0F8FD70BD0000F0B58BB00A
:103F50000546002600242846FCF772FCC7B20DB1C6
:103F60001C2F02DA01200BB0F0BD06E0A85D01A90C
:103F700088550020A855701CC6B2BE42F6DB002052
:103F800001A988550026002455E001A8805D2B2852
:103F900010D008DC202814D023282ED0252825D0A6
:103FA00026283FD130E02F2812D03D2833D03F289B
:103FB00038D114E0281923A1FCF7ACFCE01CC4B2F2
:103FC00036E0281920A1FCF7A5FCE01CC4B22FE0C4
:103FD00028191EA1FCF79EFCE01CC4B228E0281999
:103FE0001BA1FCF797FCE01CC4B221E0281919A121
:103FF000FCF790FCE01CC4B21AE0281916A1FCF7EB
:1040000089FCE01CC4B213E0281914A1FCF782FC5F
:10401000E01CC4B20CE0281911A1FCF77BFCE01CE9
:10402000C4B205E001A8805D2855601CC4B200BF81
:1040300000BF701CC6B2BE42A7DB0020285500BFDF
:1040400091E700002532420025323000253246003B
:10405000253346002532350025323300253236001F
:10406000253344002DE9F04FC9B005460C461646ED
:104070001F460DF5A47898E8000F0020489055B130
:104080004CB13F48864206D32FB1B9F1000F02D0A0
:10409000BAF1780F03DA012049B0BDE8F08F402172
:1040A00018A8FCF7DCFC3846FCF7CAFB05903B4639
:1040B00048AA4021009018A8FEF710F8482106A849
:1040C000FCF7CDFCBBF1000F09D02EA033462FA288
:1040D00048218DE8310006A8FCF7AAF909E029A0DB
:1040E000334630A248218DE81101039506A8FCF75C
:1040F0009FF9402128A8FCF7B2FC06A8FCF7A0FB1A
:10410000059018A8FCF79CFB049028A8009006AA2C
:1041100018A8DDE9041301F0E7FE002048904021D3
:1041200038A8FCF79CFC28A8FCF78AFB059028AB74
:1041300048AA4021009038A8FEF786F838A8FFF773
:1041400005FFBBF1000F0CD038A80EA12B461DA215
:10415000CDE90046CDE9021051464846FCF768F922
:104160000CE038A807A12B46244ACDE9018600942B
:10417000CDE9031051464846FCF75AF900208BE779
:104180009554415D736861310000000025640A2583
:10419000730A70726F64756374732F25730A2573C5
:1041A0000000000025640A25730A70726F6475634D
:1041B00074732F25732F646576696365732F257378
:1041C0000A25730076657273696F6E3D25732672DA
:1041D00065733D70726F647563747325253246256F
:1041E000732665743D2564266D6574686F643D258E
:1041F00073267369676E3D257300000054920008B2
:1042000000B595B00020119012901390149003A85F
:10421000029010A010A313A23821009003A8FCF76D
:1042200007F903AA17A11D4801F01EFC11A80123DC
:1042300002AA002100901420FFF79CFA38B9129AC4
:1042400091B21198FEF798FB11A8FEF7E3FF15B0A5
:1042500000BD0000443100004346634D49515944BC
:1042600052610000247379732F25732F25732F74E7
:1042700068696E672F70726F70657274792F7365DD
:104280007400000053756273637269626520546F35
:104290007069633A2025730D0A0000000038014060
:1042A00030B5B3B000202F9030903190329001257E
:1042B000A02107AA37A3CDE90032CDE9021036A329
:1042C000414A42A144A0FFF7CDFE07A83FA331A277
:1042D00044A100904F4801F0C7FB2FA80021029194
:1042E0000391CDE90410084601210B0229A2CDE972
:1042F000001007A935A0FEF7DFFF002842D1309A51
:1043000091B22F98FEF738FBFA20FEF751FA0446D7
:10431000002C33D02046FFF7CFFB02282ED12046B9
:10432000FFF7CAFA062823D2DFE800F003090E13CC
:10433000181D39A1374801F097FB00251DE03BA16E
:10434000344801F091FB18E03FA1324801F08CFBAA
:1043500013E046A12F4801F087FB0EE04BA12D484A
:1043600001F082FB09E052A12A4801F07DFB04E044
:104370005AA1284801F078FB00BF00BF2FA8FEF724
:1043800049FF03E05CA1234801F06EFB284633B0EF
:1043900030BD00004431000051304931556D525755
:1043A000536B74525747356863444E6D596E4E7067
:1043B00052474E6D59555A445546704C62585A52A0
:1043C0006333493D0000000000CF9D744346634DB8
:1043D0004951594452610000323031382D31302D6D
:1043E000333100004F6E654E45545F4465764C692D
:1043F0006E6B0D0A4E414D453A2025732C095052E3
:104400004F49443A2025732C094B45593A25730DE1
:104410000A00000000380140546970733A09C1ACC9
:10442000BDD3B3C9B9A60D0A000000005741524ED2
:104430003A09C1ACBDD3CAA7B0DCA3BAD0ADD2E9AA
:10444000B4EDCEF30D0A00005741524E3A09C1AC0B
:10445000BDD3CAA7B0DCA3BAB7C7B7A8B5C4636C4D
:1044600069656E7469640D0A000000005741524E80
:104470003A09C1ACBDD3CAA7B0DCA3BAB7FECEF12E
:10448000C6F7CAA7B0DC0D0A000000005741524E23
:104490003A09C1ACBDD3CAA7B0DCA3BAD3C3BBA78A
:1044A000C3FBBBF2C3DCC2EBB4EDCEF30D0A0000DC
:1044B0005741524E3A09C1ACBDD3CAA7B0DCA3BA2A
:1044C000B7C7B7A8C1B4BDD328B1C8C8E7746F6B6C
:1044D000656EB7C7B7A8290D0A0000004552523AC9
:1044E00009C1ACBDD3CAA7B0DCA3BACEB4D6AAB4B6
:1044F000EDCEF30D0A0000005741524E3A094D51DE
:1045000054545F5061636B6574436F6E6E65637482
:10451000204661696C65640D0A00000010B5CCB0DE
:1045200004464FF4967101A8FCF799FA68A1204659
:10453000FCF762F94FF4967101A8FCF790FA6A480B
:10454000007808B169A000E06AA002466BA101A84A
:10455000FBF758FF01A92046FCF7DCF94FF49671F0
:1045600001A8FCF77CFA6B486BA1826801A8FBF7F5
:1045700049FF01A92046FCF7CDF94FF4967101A837
:10458000FCF76DFA69486AA1826801A8FBF73AFF57
:1045900001A92046FCF7BEF94FF4967101A8FCF77B
:1045A0005EFA684868A1026801A8FBF72BFF01A921
:1045B0002046FCF7AFF94FF4967101A8FCF74FFACB
:1045C000664867A1826801A8FBF71CFF01A9204685
:1045D000FCF7A0F94F4880686649098888420ED3E5
:1045E0004FF4967101A8FCF73AFA63A263A101A8FF
:1045F000FBF708FF01A92046FCF78CF949E04B487E
:1046000080686649098888420ED34FF4967101A8E4
:10461000FCF725FA62A259A101A8FBF7F3FE01A954
:104620002046FCF777F934E04C4880685D490988FA
:1046300088420ED34FF4967101A8FCF710FA5AA2E3
:104640004EA101A8FBF7DEFE01A92046FCF762F9A6
:104650001FE03048806847490988884219D23F489E
:10466000806850490988884213D2304880684B4995
:10467000098888420DD24FF4967101A8FCF7EFF932
:104680004AA23EA101A8FBF7BDFE01A92046FCF706
:1046900041F94FF4967101A8FCF7E1F9124800784E
:1046A00008B112A000E013A0024642A101A8FBF746
:1046B000A9FE01A92046FCF72DF943A12046FCF7ED
:1046C00029F92046FCF7BCF8C0B24CB010BD000080
:1046D0007B226964223A22313233222C22706172A9
:1046E000616D73223A7B0000B30D00207472756512
:1046F0000000000066616C736500000022424545C1
:1047000050223A7B2276616C7565223A25737D2CA6
:1047100000000000180F002022434834223A7B2278
:1047200076616C7565223A25647D2C00300F00207F
:1047300022434F223A7B2276616C7565223A2564CA
:104740007D2C0000C40D002022434F32223A7B22F0
:1047500076616C7565223A25647D2C00240F00205B
:10476000224832223A7B2276616C7565223A2564B2
:104770007D2C0000940000204348340022616C61CD
:10478000726D5F696E666F223A7B2276616C756529
:10479000223A222573227D2C000000009800002080
:1047A000434F000096000020483200004E4F4E4517
:1047B00000000000226C6564223A7B2276616C75F1
:1047C00065223A25737D00007D7D00002DE9F14FC3
:1047D0008AB0002009900890079006900590002567
:1047E00004900A98FFF768F9054663A1664801F04E
:1047F0003BF9032D04D0042D7ED0092D7DD193E00B
:10480000624805A906AA09ABCDE90021029007AAD2
:1048100008A90A98FFF760F804900498002879D155
:10482000BDF818000999CDE90010BDF81C3058A159
:104830005548089A01F018F9099801F087FA0646D8
:1048400026B962A1504801F00FF97FE065A130461A
:1048500001F05CFA0746002F59D064A1384601F0F8
:1048600055FA814663A1384601F050FA804662A1AC
:10487000384601F04BFA824661A1384601F046FA0B
:10488000834661A1384601F041FA039060A13846A1
:1048900001F03CFA0446B9F1000F0CD05EA13A4891
:1048A00001F0E2F8D9F8141009B1012100E000216B
:1048B0000846FDF789FDB8F1000F0CD058A1324829
:1048C00001F0D2F8D8F8141009B1012100E000215C
:1048D0000846FEF7CDFABAF1000F03D0BAF814007B
:1048E0005149088014B1A08A50490880BBF1000FDB
:1048F00007D0BBF8140002E00DE023E00AE04C49C9
:104900000880039818B10398808A4A490880304685
:1049100001F0D0F91AE00A98FFF7BEF818B946A1DD
:10492000194801F0A1F811E00A98FFF7FFF820B943
:1049300049A1154801F098F803E04EA1124801F092
:1049400093F803E04FF0FF30049000BF00BFFDF785
:1049500021FF0498401C10B90BB0BDE8F08F0F2D5B
:1049600001D0032D05D10898FBF7FDFC0998FBF752
:10497000FAFC00BFF0E700004F6E654E65745F52B1
:10498000657650726F0D0A0000380140E00D00207E
:10499000746F7069633A2025732C20746F7069639B
:1049A0005F6C656E3A2025642C207061796C6F61B4
:1049B000643A2025732C207061796C6F61645F6CA0
:1049C000656E3A2025640D0A000000004661696C9E
:1049D000656420746F207061727365204A534F4E76
:1049E0000D0A0000706172616D7300004245455010
:1049F000000000006C6564004348345F6D6178001E
:104A0000434F5F6D61780000434F325F6D61780006
:104A100048325F6D61780000626565700D0A0000C4
:104A20006C65640D0A0000009400002096000020D0
:104A300098000020B40D0020546970733A204D5145
:104A40005454205075626C6973682053656E6420FD
:104A50004F4B0D0A00000000546970733A204D510D
:104A6000545420537562736372696265204F4B0D15
:104A70000A000000546970733A204D515454205379
:104A80007562736372696265204572720D0A000077
:104A900030B5E9B00020659066906790689000247A
:104AA00000251CA1234800F0DFFF4FF4C87101A8C6
:104AB000FBF7D5FF01A8FFF731FD0446002C26D0F7
:104AC00065A8002322461CA100901CA0FEF720FE32
:104AD000C8B908E001A8415D669A501C66906598C7
:104AE0008154681C05B2A542F4DB669A91B26598C0
:104AF000FDF742FF14A10F48669A00F0B5FF65A8C4
:104B0000FEF788FB03E014A10A4800F0ADFF69B08E
:104B100030BD0000546970733A094F6E654E65747C
:104B20005F53656E64446174612D4D5154540D0A98
:104B30000000000000380140443100004346634D4E
:104B4000495159445261000053656E642025642028
:104B500042797465730D0A005741524E3A09454433
:104B6000505F4E6577427566666572204661696C76
:104B700065640D0A00000000704700000146002037
:104B8000034A506820F440400843506070470000DA
:104B90000010024029B1064AD2690243044BDA618F
:104BA00004E0034AD2698243014BDA617047000096
:104BB0000010024029B1064A12690243044B1A61EF
:104BC00004E0034A12698243014B1A6170470000F6
:104BD0000010024029B1064A92690243044B9A61CF
:104BE00004E0034A92698243014B9A6170470000D6
:104BF0000010024029B1064AD2680243044BDA6031
:104C000004E0034AD2688243014BDA607047000037
:104C10000010024030B500210022002400232D4D59
:104C20006D6805F00C0121B1042905D0082923D1B4
:104C300005E0294D056022E0274D05601FE0254D68
:104C40006D6805F47012234D6D6805F480340225FB
:104C500005EB92421CB9214D554305600BE01D4DFB
:104C60006D6805F400351DB11C4D5543056002E02B
:104C7000194D5543056002E0174D056000BF00BFA8
:104C8000144D6D6805F0F0010909154D6B5C056860
:104C9000DD4045600F4D6D6805F4E061090A104D77
:104CA0006B5C4568DD4085600A4D6D6805F46051B8
:104CB000C90A0B4D6B5C4568DD40C560054D6D68EC
:104CC00005F44041890B074D6B5CC568B5FBF3F5F6
:104CD000056130BD0010024000127A0000093D005D
:104CE000380000204800002038B538480068012806
:104CF0000DD10A210020FDF72BFF35498880FEF7F2
:104D0000C7F8044603F094FB3149886002E00020B4
:104D10002F4988602F48006801280DD10A210420FE
:104D2000FDF716FF2C498880FEF748F9044603F08A
:104D30007FFB2949886002E00020274988602748D6
:104D4000006801280CD10A21FDF702FF2449888060
:104D5000FEF7CAF9044603F06BFB2149886002E0C4
:104D600000201F4988601020009019480323022169
:104D700082682820FFF77CF8102000901848032351
:104D8000022182686820FFF773F810200323009047
:104D90001448042102684820FFF76AF810200090A8
:104DA0000D480323062182684820FFF761F80E486A
:104DB0000068401C0C490860084600683C2804D183
:104DC00000F002FD00200849086038BD880000207E
:104DD000180F00208C000020300F002090000020D1
:104DE000240F0020C40D00200C00002010B53C480A
:104DF0000078012872D13B48007818286DD2DFE88E
:104E000000F0350C15191D2125292D3169393D4139
:104E1000456C494D5155595D616500203249086026
:104E2000FDF7D2FA0020FEF723F856E001202E49C4
:104E3000086052E015202D4908804EE000202C49E2
:104E400008604AE01B202B49088046E000202A49E0
:104E5000086042E03720294908803EE000202849C8
:104E600008603AE018202749088036E000202649EB
:104E7000086032E001201E4908602EE00120204930
:104E800008602AE001201C49086026E001201E4934
:104E9000086022E001201D4908601EE001201C4935
:104EA00008601AE001201B49086016E001201A4939
:104EB000086012E00020154908600EE00020144947
:104EC00008600AE000201349086006E0002012494B
:104ED000086002E000F022F800BF00BF10BD000033
:104EE00036000020370000206800002094000020D9
:104EF00088000020980000208C000020B40D0020C5
:104F0000B80D002096000020900000207C000020BA
:104F10008400002080000020BC0D002010B500247B
:104F20000A2094FBF0F100FB114038BB184881685F
:104F3000052000F017FC17480188062000F012FC3D
:104F400015488168072000F00DFC144801880820EE
:104F500000F008FC12480168092000F003FC114829
:104F600001880A2000F0FEFB0F4881680B2000F04A
:104F7000F9FB0E4801880C2000F0F4FB0A2000F039
:104F800067FF601CC4B2142C00D1002410BD0000C7
:104F9000180F002094000020300F002098000020FF
:104FA000C40D0020B40D0020240F00209600002026
:104FB0007047000001460D4800780D4A1278904273
:104FC00001D1002070470B48094A1278805C0870B4
:104FD000074A1278501CC21700EB12621212A0EBA3
:104FE0000222034B1A700120ECE70000340000207D
:104FF00035000020F00D002010B500F001F810BDC4
:105000000CB50020019000903348006840F48030D7
:105010003149086000BF3048006800F4003000905B
:105020000198401C0190009818B90198B0F5A06F44
:10503000F1D12948006800F4003010B1012000903F
:1050400001E0002000900098012843D12348006827
:1050500040F01000214908600846006820F0030075
:1050600008600846006840F0020008601A4840687E
:10507000194948600846406848600846406840F45E
:10508000806048600846406820F47C10486008460C
:10509000406840F4E81048600846006840F08070BE
:1050A000086000BF0C48006800F000700028F9D0CC
:1050B0000948406820F003000749486008464068F6
:1050C00040F00200486000BF0348406800F00C0058
:1050D0000828F9D10CBD0000001002400020024059
:1050E000042808D14FF0E021096941F004014FF094
:1050F000E022116107E04FF0E021096921F004018D
:105100004FF0E022116170477047000010B513485E
:10511000006840F0010011490860084640681049E5
:1051200008400E494860084600680E4908400B498F
:1051300008600846006820F480200860084640683F
:1051400020F4FE0048604FF41F008860FFF754FF12
:105150004FF000600449086010BD000000100240DC
:105160000000FFF8FFFFF6FE08ED00E010B501219A
:10517000394800F0D4F800286CD038480068401C4A
:105180003649086042F21071B0FBF1F201FB1200E7
:1051900068B9334800685A2809D831480068401C6B
:1051A0002F4908602F480068401E2E4908602C488F
:1051B00000685D284AD12C480068012846D12B4858
:1051C00080682B490988884203D32A48006801284F
:1051D00013D02948806829490988884203D3284880
:1051E0000068012809D02748806827490988884233
:1051F00029D326480068012825D125480068401C8D
:105200002349086008460068B0F5FA7F06DC0120F3
:10521000FDF7DAF80120FDF72BFE17E01C480068C7
:10522000B0F57A7F06DC0020FDF7CEF80020FDF710
:105230001FFE0BE016480068B0F57A7F06DD0020FF
:105240001349086002E0002011490860012102486A
:1052500000F056F810BD0000000800406400002077
:10526000600000205800002068000020180F002077
:10527000940000207C000020300F002098000020C7
:1052800080000020240F00209600002084000020D1
:105290005C0000201FB501210420FFF77BFC1748AC
:1052A00000F057F80020ADF80A00ADF8060041F60E
:1052B0001F40ADF808000020ADF804008DF80C0088
:1052C00001A90E4800F04CF8012211460B4800F0ED
:1052D00037F81E208DF8000001208DF80300002013
:1052E0008DF8010001208DF802006846FEF73CFCB5
:1052F0000121024800F007F81FBD0000000800402F
:10530000CA430282704721B1028842F00102028042
:1053100004E002884FF6FE731A400280704730B5F1
:105320000246002000230024158A05EA010395891E
:1053300005EA010413B10CB1012000E0002030BDEA
:105340001AB183890B43838102E083898B43838174
:10535000704701894FF6F8721140018170470000D3
:10536000002202881D4B98420ED01D4B98420BD054
:10537000B0F1804F08D01B4B984205D01A4B984291
:1053800002D01A4B984204D14FF68F731A404B88C3
:105390001A43174B984207D0164B984204D04FF649
:1053A000FF431A40CB881A4302808B8883850B8881
:1053B00003850A4B98420BD0094B984208D00E4BFC
:1053C000984205D00D4B984202D00D4B984201D126
:1053D0000B7A03860123838270470000002C014072
:1053E000003401400004004000080040000C004070
:1053F0000010004000140040004001400044014003
:105400000048014010B540F225510D4800F0E5F884
:10541000A8B10B4800F09CF90A490B4A127888544D
:1054200009490978481CC11700EB11610912A0EB6A
:105430000121054A11702021014800F05DF810BDDE
:1054400000380140F00D00203400002010B540F27B
:1054500025510E4800F0C1F8B8B10D480088B0F5EC
:10546000007F02D300200A4908800848001D0088F8
:10547000C1B2074802880088401C054B18800548C7
:1054800081542021014800F037F810BD004400404D
:10549000D00D00203C10002010B5002440F2255112
:1054A000064800F09AF840B1044800F051F9C4B23F
:1054B0000348047001200349087010BD00480040F3
:1054C000370000203600002010B5044600BF8021C0
:1054D000084800F075F80028F9D02146054800F08A
:1054E0003CF900BF4021034800F06AF80028F9D0D9
:1054F00010BD00000048004001F40072B2F5007FCA
:1055000000D100BFCA430280704721B1828942F4B2
:105510000052828104E082894DF6FF731A40828135
:105520007047000010B504462048844209D101218B
:105530008803FFF75FFB00214FF48040FFF75AFB21
:1055400032E01B48844209D101214804FFF732FBB5
:1055500000214FF40030FFF72DFB25E01548844271
:1055600009D101218804FFF725FB00214FF4802099
:10557000FFF720FB18E01048844209D10121C8043C
:10558000FFF718FB00214FF40020FFF713FB0BE09F
:105590000A48844208D101210805FFF70BFB0021CE
:1055A0004FF48010FFF706FB10BD000000380140EB
:1055B0000044004000480040004C004000500040C3
:1055C00002460020B1F5007F00D100BF13880B40D8
:1055D0000BB1012000E00020704770B502460024A6
:1055E00000230025002040F66A16B14200D100BF1A
:1055F000C1F3421501F01F03012606FA03F3012D42
:1056000002D19689334006E0022D02D1168A33403A
:1056100001E0968A33400C12012606FA04F416883B
:10562000344013B10CB1012000E0002070BDF0B592
:105630000346002400260025002040F66A17B942E0
:1056400000D100BF1846C1F3421401F01F06012724
:1056500007FA06F5012C01D10C3004E0022C01D12F
:10566000103000E014301AB107682F43076002E0E1
:105670000768AF430760F0BD2DE9F04786B00546E7
:105680000E460024A24600BFA1460027B08900B103
:1056900000BF2F462C8A4CF6FF700440F08804436C
:1056A0002C82AC894EF6F3100440B088318908434F
:1056B000718908430443AC81AC8A4FF6FF40044033
:1056C000B0890443AC8201A8FFF7A4FA1F488742BF
:1056D00002D1DDF810A001E0DDF80CA0A88900F4EB
:1056E000004040B10AEBCA0000EB0A1031684900E3
:1056F000B0FBF1F807E00AEBCA0000EB0A103168D2
:105700008900B0FBF1F86420B8FBF0F00401200937
:10571000642101FB1089A88900F4004040B13220C7
:1057200000EBC900B0FBF1F000F00700044308E013
:10573000322000EB09106421B0FBF1F000F00F0003
:1057400004432C8106B0BDE8F0870000003801401A
:1057500001468888C0F308007047C1F308028280C0
:105760007047000070B505460C460348056044606C
:10577000022000F00DF870BDF00E002010B50446B8
:1057800002480460012000F003F810BDF00E002074
:1057900070B505460024AA20FFF796FE5520FFF7B6
:1057A00093FE00BF05E0074911F82400FFF78CFEC7
:1057B000641CAC42F7DB5520FFF786FEAA20FFF7FA
:1057C00083FE70BDF00E002010B51C480068012853
:1057D0000ED11B4880681B490988884208D31848A5
:1057E00081680520FFF7BEFF0D20FFF7C7FF24E00B
:1057F0001548006801280ED11448806814490988AA
:10580000884208D3114881680B20FFF7ABFF0E20B8
:10581000FFF7B4FF11E00F48006801280DD10E48D2
:1058200080680E490988884207D30B4881680720A1
:10583000FFF798FF0F20FFF7A1FF10BD7C000020AD
:10584000180F00209400002084000020240F002066
:105850009600002080000020300F002098000020DB
:1058600000BFFEE710B586B00446012144F20400F3
:10587000FFF7B0F92448FFF755FE4FF40070ADF87C
:10588000140003208DF8160018208DF8170005A9C4
:105890001E48FDF7AFF84FF48060ADF81400042007
:1058A0008DF8170005A91948FDF7A4F84FF4165014
:1058B00001900020ADF80800ADF80A00ADF80C002A
:1058C000ADF810000C20ADF80E0001A90E48FFF74E
:1058D000D3FE012240F225510B48FFF7A8FE01211B
:1058E0000948FFF712FE25208DF8000003208DF8EF
:1058F00001008DF8020001208DF803006846FEF7D4
:1059000033F906B010BD0000003801400008014026
:1059100010B586B0044601210420FFF75BF9012190
:105920004804FFF737F918208DF817000420ADF868
:10593000140003208DF8160005A91E48FDF75AF83B
:1059400004208DF817000820ADF8140003208DF80E
:10595000160005A91748FDF74DF801940020ADF891
:1059600010000C20ADF80E000020ADF80C00ADF8D2
:105970000A00ADF8080001A90F48FFF77DFE0121DC
:105980000D48FFF7C2FD012240F225510A48FFF7FA
:105990004EFE26208DF8000001208DF80300002027
:1059A0008DF801008DF802006846FEF7DDF806B0BC
:1059B00010BD0000000801400044004010B586B052
:1059C000044601210820FFF705F901218804FFF7AB
:1059D000E1F818208DF817004FF48060ADF814003E
:1059E00003208DF8160005A91D48FDF703F80420D3
:1059F0008DF817004002ADF8140003208DF8160052
:105A000005A91748FCF7F6FF01940020ADF8100037
:105A10000C20ADF80E000020ADF80C00ADF80A0027
:105A2000ADF8080001A90F48FFF726FE01210D4837
:105A3000FFF76BFD012240F225510A48FFF7F7FD01
:105A400027208DF8000001208DF803008DF801005B
:105A500000208DF802006846FEF786F806B010BDFB
:105A6000000C0140004800400FB430B5CBB00546F3
:105A700001AC50A800904FF4947101A8009B4F9A7C
:105A8000FAF7A6FC002000900BE014F8011B284652
:105A9000FFF763FE00BF40212846FFF791FD002875
:105AA000F9D020780028F0D14BB030BC5DF814FB61
:105AB0002DE9F04107460C46154600260DE014F886
:105AC000011B3846FFF749FE00BF40213846FFF76B
:105AD00077FD0028F9D0701C86B2AE42EFDBBDE83E
